:100000000C9434000C943E000C943E000C943E0082
:100010000C943E000C943E000C943E000C943E0068
:100020000C943E000C943E000C943E000C943E0058
:100030000C943E000C943E000C943E000C943E0048
:100040000C943E000C943E000C943E000C943E0038
:100050000C943E000C943E000C943E000C943E0028
:100060000C943E000C943E0011241FBECFEFD8E04C
:10007000DEBFCDBF0E9440000C9471000C940000C4
:100080000E94460081E40E946B00FCCF84B188602E
:1000900084B984B18F7E84B984B1806284B984B11B
:1000A000846084B985B1846085B98CB580618CBD6C
:1000B0008CB58F7D8CBD8CB58D7F8CBD8CB58160F2
:1000C0008CBD8CB5877F8CBD8CB584608CBD8CB5A8
:1000D00080648CBD08958EBD0DB407FEFDCF8EB536
:0600E0000895F894FFCF23
:00000001FF
