S0110000554152545F415050312E7372656366
S11300000C9434000C9449000C9449000C9449005D
S11300100C9449000C9449000C9449000C94490038
S11300200C9449000C9449000C9449000C94490028
S11300300C9449000C9449000C9449000C94490018
S11300400C9449000C9449000C9449000C94490008
S11300500C9449000C9449000C9449000C944900F8
S11300600C9449000C94490011241FBECFEFD8E032
S1130070DEBFCDBF11E0A0E0B1E0EAE0F2E002C0F3
S113008005900D92AC30B107D9F70E94FC000C9496
S113009003010C94000085B1826085B9000085B12C
S11300A08D7F85B981E28A95F1F70000089580FF7C
S11300B004C095B1946095B903C095B19B7F95B97F
S11300C081FF04C095B1986095B903C095B1977F3D
S11300D095B982FF04C095B1906195B903C095B1FB
S11300E09F7E95B983FF04C085B1806285B903C042
S11300F085B18F7D85B90E944B000895CF93C82F99
S113010082958F700E9457008C2F8F700E94570029
S1130110CF910895CF93C82F85B18E7F85B98C2F49
S11301200E947E00C150C23030F483EF91E0019709
S1130130F1F700C00000CF91089595B1916095B991
S11301400E947E00089584B1816084B984B1826084
S113015084B984B1846084B984B1886084B984B179
S1130160806184B984B1806284B985B18E7F85B998
S113017085B18D7F85B987E893E10197F1F700C0D8
S1130180000083E00E94570081EE94E00197F1F7AC
S113019000C0000083E00E94570092E39A95F1F7B3
S11301A083E00E94570082E38A95F1F782E00E947F
S11301B0570088E20E948A0088E00E948A0081E059
S11301C00E948A0083EF91E00197F1F700C00000DC
S11301D086E00E948A008CE00E948A000895CF93F2
S11301E0DF93EC0103C021960E949D008881811158
S11301F0FACFDF91CF9108950E94A30080E091E0AF
S10D02000E94EF00FFCFF894FFCF37
S10F020A48656C6C6F2053616D6100004E
S9030000FC
