:100000000C9434000C943E000C943E000C943E0082
:100010000C943E000C943E000C943E000C943E0068
:100020000C943E000C943E000C943E000C943E0058
:100030000C943E000C943E000C943E000C943E0048
:100040000C943E000C943E000C943E000C943E0038
:100050000C943E000C943E000C943E000C943E0028
:100060000C943E000C943E0011241FBECFEFD8E04C
:10007000DEBFCDBF0E9451000C946F000C940000B5
:10008000880F8093BA0084E48093BC00089584ECC8
:100090008093BC008091BC008823E4F78091BB0072
:1000A000089528B181E090E002C0880F991F2A9539
:1000B000E2F797B1892B87B988B18E7F88B983E23F
:1000C0000E9440000E944700823419F498B1916068
:1000D00098B98F34B9F788B18E7F88B9F3CFF89487
:0200E000FFCF50
:00000001FF
