:100000000C9434000C943E000C943E000C943E0082
:100010000C943E000C943E000C943E000C943E0068
:100020000C943E000C943E000C943E000C943E0058
:100030000C943E000C943E000C943E000C943E0048
:100040000C943E000C943E000C943E000C943E0038
:100050000C943E000C943E000C943E000C943E0028
:100060000C943E000C943E0011241FBECFEFD8E04C
:10007000DEBFCDBF0E9440000C9474000C940000C1
:1000800087B1816087B90E944D000E946F00813462
:10009000E1F788B1816088B9F8CF84B1877F84B9EE
:1000A00084B1806184B984B18F7D84B984B18B7F40
:1000B00084B985B18B7F85B98CB58F778CBD8CB5B4
:1000C00080628CBD8CB58F7E8CBD8CB588608CBDFC
:1000D0008CB584608CBD8CB580648CBD08950DB4E6
:0C00E00007FEFDCF8EB50895F894FFCF09
:00000001FF
