:100000000C9434000C943E000C943E000C943E0082
:100010000C943E000C943E000C943E000C943E0068
:100020000C943E000C943E000C943E000C943E0058
:100030000C943E000C943E000C943E000C943E0048
:100040000C943E000C943E000C943E000C943E0038
:100050000C943E000C943E000C943E000C943E0028
:100060000C943E000C943E0011241FBECFEFD8E04C
:10007000DEBFCDBF0E9440000C9474000C940000C1
:1000800087B1826087B90E94530084B1826084B9CD
:1000900085B1826085B90E946F008134E1F788B133
:1000A000826088B9F8CF84B1877F84B984B18061D8
:1000B00084B984B18F7D84B984B18B7F84B98CB5C8
:1000C0008F7E8CBD8CB58F7D8CBD8CB5877F8CBDB4
:1000D0008CB584608CBD8CB580648CBD08950DB4E6
:0C00E00007FEFDCF8EB50895F894FFCF09
:00000001FF
