S00E00004D61737465722E73726563AA
S11300000C9434000C943E000C943E000C943E007E
S11300100C943E000C943E000C943E000C943E0064
S11300200C943E000C943E000C943E000C943E0054
S11300300C943E000C943E000C943E000C943E0044
S11300400C943E000C943E000C943E000C943E0034
S11300500C943E000C943E000C943E000C943E0024
S11300600C943E000C943E0011241FBECFEFD8E048
S1130070DEBFCDBF0E9440000C9477000C940000BA
S11300800E94460081E40E947100FCCF84B1886024
S113009084B984B18F7E84B984B1806284B984B117
S11300A0846084B985B1846085B98CB58F778CBD43
S11300B08CB580628CBD8CB580618CBD8CB588603C
S11300C08CBD8CB584608CBD8CB58E7F8CBD8CB59D
S11300D082608CBD8DB58E7F8DBD8CB580648CBDEA
S11300E008958EBD0DB407FEFDCF8EB50895F89426
S10500F0FFCF3C
S9030000FC
