S01A0000507265706169642043617264204B696F736B2E737265638A
S11300000C9468000C9485000C9485000C94850075
S11300100C9485000C9485000C9485000C94850048
S11300200C9485000C9485000C9485000C94850038
S11300300C9485000C9485000C9485000C94850028
S11300400C9485000C9485000C9485000C94850018
S11300500C9485000C9485000C9485000C94850008
S11300600C9485000C9485005E0A6C0A7A0A0008D8
S113007011082108330845085708670878088A08D2
S11300809908500A7A0A7A0A7A0A7A0A7A0A7A0A59
S1130090AA08B908C908D908EA08FA080A091B090C
S11300A02A0939094B095D096C097C098D099C09E8
S11300B0AC09BE09D009E009EF09FE090E0A1E0ABF
S11300C02E0A3E0A6364696E6F70737578585B001C
S11300D011241FBECFEFD8E0DEBFCDBF12E0A0E0F9
S11300E0B1E0E0E5F8E202C005900D92A635B10753
S11300F0D9F722E0A6E5B2E001C01D92A939B20702
S1130100E1F70E94E3070C9426140C940000CF93AB
S1130110DF93C82FD92F80EA0E946701882389F0D2
S11301208D2F0E9487018C2F0E94870181EA0E94F3
S11301306701882331F00E94A301C82F0E94AD01FA
S11301408C2FDF91CF9108951F93CF93DF93182FB6
S1130150D92FC62F80EA0E9467018823D1F08D2F02
S11301600E948701812F0E9487018C2F0E948701A2
S11301700E94AD018FE19EE40197F1F700C00000F9
S1130180812F9D2F0E948700C81302C081E001C007
S113019080E0DF91CF911F910895CF92DF92EF928B
S11301A0FF920F931F93CF93DF936C017B018A011E
S11301B0C0E0D0E00CC0F701EC0FFD1F6081CE0160
S11301C08C0D9D1D0E94A400882329F02196C01740
S11301D0D10788F381E0DF91CF911F910F91FF90B8
S11301E0EF90DF90CF900895AF92BF92CF92DF92BD
S11301F0EF92FF920F931F93CF93DF935C016B01F8
S11302007A01C0E0D0E00BC086010C0F1D1FCE01A7
S11302108A0D9B1D0E948700F80180832196CE15CC
S1130220DF0590F381E0DF91CF911F910F91FF9053
S1130230EF90DF90CF90BF90AF90089587B18F601B
S113024087B988B1807F88B9089588B1887F88B9D3
S113025088B1846088B9089588B1886088B92FEF1F
S113026081EE94E0215080409040E1F700C000000E
S113027088B1877F88B9089588B1887F88B988B1A3
S1130280816088B90E942C01089588B1886088B97A
S11302902FEF8DE292E2215080409040E1F700C0C0
S11302A0000088B1877F88B9089588B1887F88B9AC
S11302B088B1826088B90E94450108951092B900FE
S11302C088E48093B80084E08093BC00089594EAA5
S11302D09093BC009091BC009923E4F78093BB00F9
S11302E084E88093BC008091BC008823E4F780916B
S11302F0B900887F883139F08091B900887F8034D3
S113030021F481E0089581E0089580E008958093C8
S1130310BB0084E88093BC008091BC008823E4F790
S11303208091B900887F883211F481E0089580E0DB
S1130330089584EC8093BC008091BC008823E4F78A
S11303408091BB00089584E88093BC008091BC0038
S11303508823E4F78091BB00089584E98093BC006E
S113036008950F931F93CF93DF9300D000D000D054
S1130370CDB7DEB7FC018B01892BA9F580E3FB0126
S11303808083118248C09F01ADECBCEC0E94EB0D50
S11303909695879596958795969587959C01220FB6
S11303A0331F880F991F880F991F880F991F820F79
S11303B0931F9F01281B390BC901A1E0B0E0AC0FCA
S11303C0BD1FA40FB11D805D8C939F01ADECBCECEF
S11303D00E94EB0DFC01F695E795F695E795F695E9
S11303E0E7954F5F01C040E0309769F680E00DC0AB
S11303F0D801A80FB11D4150E1E0F0E0EC0FFD1F62
S1130400E40FF11D90819C938F5F4111F1CFF801AE
S1130410E80FF11D108226960FB6F894DEBF0FBECA
S1130420CDBFDF91CF911F910F91089590E0049675
S11304300024969587950794969587950794982F09
S1130440802D0895FC0133812281918180811F9246
S11304503F931F922F931F929F931F928F9380E03D
S113046091E09F938F937F936F930E94080E8DB7B3
S11304709EB70C960FB6F8949EBF0FBE8DBF08951D
S1130480AF92BF92CF92DF92EF92FF920F931F939E
S1130490CF93DF93CDB7DEB7C758D1090FB6F89421
S11304A0DEBF0FBECDBFF82EE92ED62EC72ECE014D
S11304B001960E941C0D882309F469C0809156029C
S11304C0909157029C012F5F3F4F30935702209326
S11304D056025E0127E0A20EB11CB5010E94B101D3
S11304E029819A818B811F922F931F929F931F9230
S11304F08F9381E191E09F938F938E01015F1F4F52
S11305001F930F930E94080ECF92DF92EF92FF92F7
S11305101F930F93BF92AF9280E291E09F938F93CA
S1130520CE014F969F938F930E94080E0FB6F894B6
S1130530DEBF0FBECDBF80E020E002C029278F5F61
S1130540EFE1F0E0EC0FFD1FE80FF11D9081911138
S1130550F5CF1F922F938CE091E09F938F938E01A0
S11305600D571F4F1F930F930E94080ECE014F96F5
S11305700E94AE0DC8010E94AE0D86EF91E00E946C
S1130580AE0D0F900F900F900F900F900F90C957D2
S1130590DF4F0FB6F894DEBF0FBECDBFDF91CF9112
S11305A01F910F91FF90EF90DF90CF90BF90AF908D
S11305B008950F931F93CF93DF93CDB7DEB728979A
S11305C00FB6F894DEBF0FBECDBF8C010E94F00AB7
S11305D082E391E00E94E30ABE016F5F7F4FC8018E
S11305E00E94B101CE0101960E94E30A0530110573
S11305F050F460E081E00E94A70A8CE391E00E943D
S1130600E30A0E94250128960FB6F894DEBF0FBEB8
S1130610CDBFDF91CF911F910F910895CF92DF92BB
S1130620FF920F931F93CF93DF936C0100E018C0E8
S1130630802F0E941602C12FD0E08C0F9D1F0E94B4
S11306408700CC0DDD1D98818913F12C1F5F03C039
S1130650FF24F39410E0143058F3F11005C00F5F39
S11306600031B0F38FEF01C0802FDF91CF911F9144
S11306700F91FF90DF90CF9008950F931F93CF9326
S1130680DF930E9416028C0106960E948700C82FF1
S1130690D0E0C80107960E94870090E0982F882731
S11306A08C2B9D2BDF91CF911F910F910895DF9299
S11306B0EF92FF920F931F93CF93DF93CDB7DEB7E3
S11306C02E970FB6F894DEBF0FBECDBF7C01D12CA0
S11306D023C00D2D10E0C801880F991F9E01235FD0
S11306E03F4F3F932F9328E431E03F932F938E0D98
S11306F09F1D9F938F930E942A0E8D85E1E0F0E069
S1130700EC0FFD1FE00FF11F8083D3940F900F9027
S11307100F900F900F900F9083E08D15D0F6CE01BF
S113072001960E940E038F3F29F48CE491E00E940D
S1130730AE0D13C00E943D03BE016B5F7F4F0E944C
S1130740B1018BE591E00E94AE0DCE0105960E94A9
S1130750AE0D86EF91E00E94AE0D2E960FB6F89482
S1130760DEBF0FBECDBFDF91CF911F910F91FF90E0
S1130770EF90DF900895CF92DF92EF92FF920F9364
S11307801F93CF93DF93CDB7DEB7EF970FB6F894EF
S1130790DEBF0FBECDBF7C01D12C23C00D2D10E0D8
S11307A0C801880F991F9E01225C3F4F3F932F93EE
S11307B028E431E03F932F938E0D9F1D9F938F93D9
S11307C00E942A0E8EADE1E0F0E0EC0FFD1FE00F79
S11307D0F11F8083D3940F900F900F900F900F9080
S11307E00F9083E08D15D0F6CE0101960E940E0382
S11307F0F82E9FEF891305C08CE491E00E94AE0DA2
S113080052C00E94160204960E948700182F00E02E
S113081047C0112311F0115001C014E08F2D90E056
S11308209C01220F331F220F331F820F931F810F4E
S1130830911D805B9F4F47E050E0BE016B5F7F4F8F
S113084082959295907F9827807F98270E94F40044
S11308508D81882321F16B855A85388549859E8150
S11308602F811F926F931F925F934F933F932F9308
S11308709F931F928F9384E691E09F938F936E01D1
S11308808CE0C80ED11CDF92CF920E94080EC601E4
S11308900E94AE0D0FB6F894DEBF0FBECDBF0F5F42
S11308A0053008F4B6CFEF960FB6F894DEBF0FBE4E
S11308B0CDBFDF91CF911F910F91FF90EF90DF900B
S11308C0CF900895CF93DF93CDB7DEB728970FB6B7
S11308D0F894DEBF0FBECDBF9E012F5F3F4F3F9305
S11308E02F932F5F3F4F3F932F932F5F3F4F3F93A4
S11308F02F932F5F3F4F3F932F932F5F3F4F3F9394
S11309002F932E5F3F4F3F932F9329E731E03F937F
S11309102F939F938F930E942A0E0FB6F894DEBFF5
S11309200FBECDBF069739F54F8158859A0136958C
S1130930279536952795ABE7B4E10E94EB0D969584
S1130940879564E6689F9001699F300D1124CA0160
S1130950821B930B8E83CE0101960E94EA0C88239E
S113096029F085E991E00E94AE0D09C08AE991E081
S11309700E94AE0D04C08AE991E00E94AE0D289653
S11309800FB6F894DEBF0FBECDBFDF91CF910895AF
S1130990CF92DF92EF92FF920F931F93CF93DF9347
S11309A06C01C0E02EC08C2F0E9416028C017C01C9
S11309B085E0E80EF11CC7010E948700853A01F129
S11309C00CC08D2F90E0F601E80FF91F6081800FB5
S11309D0911F0E94A400DF5F01C0D0E0D43088F3EF
S11309E060E0C80106960E94A40060E0C801079672
S11309F00E94A40065EAC7010E94A4008C2F04C0D1
S1130A00CF5FC03180F28FEFDF91CF911F910F91B3
S1130A10FF90EF90DF90CF900895FF920F931F9374
S1130A20CF93DF93F82EEB010E9416028C016C2FFA
S1130A3006960E94A400882381F06D2FC8010796B2
S1130A400E94A400882349F08F2D0E943D03C817FB
S1130A50D90711F080E001C081E0DF91CF911F91AF
S1130A600F91FF9008959F92AF92BF92CF92DF9221
S1130A70EF92FF920F931F93CF93DF93CDB7DEB71F
S1130A802D970FB6F894DEBF0FBECDBF982EA62EBD
S1130A907A018901CE0101960E941C0D8823B9F1C7
S1130AA0892D0E94160204966C010E948700B82EBC
S1130AB084E08B1508F4B12C892D90E09C01220F61
S1130AC0331F220F331F820F931F8B0D911D805BE9
S1130AD09F4FAF82F986E8861B870A872B812C8774
S1130AE02A812D8747E050E0BE01695F7F4F8295E0
S1130AF09295907F9827807F98270E94CD0061E08F
S1130B006B0D653008F060E0C6010E94A4002D96CC
S1130B100FB6F894DEBF0FBECDBFDF91CF911F910A
S1130B200F91FF90EF90DF90CF90BF90AF909F9088
S1130B300895AF92BF92CF92DF92EF92FF920F93FC
S1130B401F93CF93DF93CDB7DEB7AE970FB6F8946C
S1130B50DEBF0FBECDBF7C016B01FC010190002004
S1130B60E9F73197E81BF90B389749F18AE991E0E5
S1130B700E94AE0D7DC00B2D10E0C801880F991F97
S1130B809E01235D3F4F3F932F9328E431E03F9331
S1130B902F938E0D9F1D9F938F930E942A0E8DA5D8
S1130BA0E1E0F0E0EC0FFD1FE00FF11F8083B39450
S1130BB00F900F900F900F900F900F9001C0B12CD9
S1130BC083E08B15C0F6CE0101960E940E03182F08
S1130BD08F3F29F4CE0101960E94C804182F1F3FAD
S1130BE029F480EA91E00E94AE0D42C0812F0E9458
S1130BF03D0347EE53E0481B590B4C155D0528F4A3
S1130C008BEA91E00E94AE0D33C05C01AC0CBD1CBC
S1130C10B501812F0E940D05811107C065EB71E0BC
S1130C208CEB91E00E94400223C09501A60162E092
S1130C30812F0E943305DF92CF92FF92EF9282ECD4
S1130C4091E09F938F938E010B5F1F4F1F930F9320
S1130C500E94080EB80188EC91E00E94400285E9E8
S1130C6091E00E94AE0D0FB6F894DEBF0FBECDBF6B
S1130C70AE960FB6F894DEBF0FBECDBFDF91CF9115
S1130C801F910F91FF90EF90DF90CF90BF90AF90A6
S1130C9008950F931F93CF93DF93CDB7DEB72E97AD
S1130CA00FB6F894DEBF0FBECDBF8C0146E050E016
S1130CB06EEC71E00E94FA0D892B21F5CE010D96A0
S1130CC09F938F930C979F938F9385ED91E09F93C0
S1130CD08F930A5F1F4F1F930F930E942A0E0FB624
S1130CE0F894DEBF0FBECDBF029739F46D857E85C3
S1130CF0CE0101960E94990533C08AE991E00E94D1
S1130D00AE0D2EC048E050E06BE571E0C8010E94D2
S1130D10FA0D892B29F4C80108960E94570320C0B4
S1130D2048E050E06DED71E0C8010E94FA0D892B96
S1130D3029F4C80108960E94BB0312C048E050E0A1
S1130D4066EE71E0C8010E94FA0D892B29F4C801EE
S1130D5008960E94620404C08FEE91E00E94AE0DDA
S1130D602E960FB6F894DEBF0FBECDBFDF91CF91A4
S1130D701F910F9108950E945E0180E895E20E9400
S1130D80770D0E941E010E940C0B0E94DE0C0E9433
S1130D900E0C0E94F00A89EF91E00E94E30A67E0DA
S1130DA072E08DE092E00E9440020895CF92DF92BB
S1130DB0EF92FF920F931F93CF93DF93CDB7DEB7DC
S1130DC0C055D1090FB6F894DEBF0FBECDBF0E9447
S1130DD0BB0D882309F10E94A70D8D3011F08A30D4
S1130DE079F4E0915802EE23B9F0F0E0E75AFD4FB0
S1130DF0108289E592E00E944906109258020CC0C4
S1130E00E0915802EF3340F491E09E0F9093580222
S1130E10F0E0E75AFD4F80830E94520C882309F4C6
S1130E20C2C0CE0101960E94760C882309F4BBC08F
S1130E30CE0101960E940E03182F8F3F29F4CE0194
S1130E4001960E94C804182F1F3F09F499C0812FEE
S1130E500E943D037C01CE0105960E941C0D88234F
S1130E6009F485C0CE0105960E94520D882311F025
S1130E7003E001C002E0BE01655F7F4FCE01019631
S1130E800E942202C02ED12CEC14FD04D0F1EC18E7
S1130E90FD08B701812F0E940D05882349F19701B0
S1130EA0A60161E0812F0E943305FF92EF921F9209
S1130EB00F93CE010B969F938F9382E192E09F93C1
S1130EC08F938E01095E1F4F1F930F930E94080E8C
S1130ED0B8018BE192E00E944002C7010E94D9024E
S1130EE00E943C010FB6F894DEBF0FBECDBF50C0C8
S1130EF065EB71E08CEB91E00E9440020E942501B9
S1130F0047C0CE010B969F938F938FE192E09F93FE
S1130F108F938E01095E1F4F1F930F930E94080E3B
S1130F20B8018EE292E00E9440020E94F00A86E339
S1130F3092E00E94E30A60E081E00E94A70A82E353
S1130F4091E00E94E30ABE01675B7F4FC7010E94E4
S1130F50B101CE01875B9F4F0E94E30A0E945501B5
S1130F600F900F900F900F900F900F9011C063E4AB
S1130F7072E08CEB91E00E9440020E94250108C0BF
S1130F8065EB71E08CEB91E00E9440020E94250128
S1130F900E94BB0C9FEF23ED80E3915020408040E2
S1130FA0E1F700C00000C05BDF4F0FB6F894DEBF6E
S1130FB00FBECDBFDF91CF911F910F91FF90EF90A6
S1130FC0DF90CF9008950E94BB060E94D606FDCF05
S1130FD0CF93DF93DB0190E005C0ED01C90FD11D74
S1130FE018829F5F9530C8F3482F50E0FA01BD97EF
S1130FF0EE32F10508F07EC2EC5CFF4F0C94E50D77
S11310008EE38C9391E511969C93119799E4129633
S11310109C93129795E413969C93139714968C9330
S113102075C21C9282E411968C9311978FE71296E5
S11310308C93129780E413968C93139714961C92B6
S113104065C282E48C9381E611968C93119781E5B5
S113105012968C93129789E413968C93139786E4D3
S113106014968C9353C281E28C9381E411968C93F1
S1131070119785E412968C9312978BE413968C93B4
S1131080139781E314968C9341C288E18C9384E195
S113109011968C93119782E112968C9312978FE795
S11310A013968C93139780E114968C932FC287E246
S11310B08C9385E411968C93119712968C931297C6
S11310C013968C93139789E314968C931FC28CE325
S11310D08C938AE411968C93119789E412968C93DD
S11310E0129713968C93139780E314968C930EC2E5
S11310F081E08C9381E711968C93119789E0129685
S11311008C93129785E013968C93139783E014962F
S11311108C93FCC196E39C9389E411968C9311976C
S113112012968C93129713968C93139714969C9300
S1131130EDC186E08C9389E411968C9311971296F5
S11311408C93129789E213968C9313978EE11496DD
S11311508C93DCC19EE79C9389E011968C93119744
S113116012968C93129713968C93139714969C93C0
S1131170CDC18FE78C9389E411968C9311971296C5
S11311808C93129713968C93139786E314968C93EF
S1131190BDC18EE38C9381E411968C9311971296C2
S11311A08C93129713968C93139782E214968C93D4
S11311B0ADC18FE78C9381E411968C9311971296AD
S11311C08C93129782E213968C9313978CE1149666
S11311D08C939CC18FE78C9389E411968C9311971F
S11311E012968C93129713968C93139781E414960A
S11311F08C938CC18FE78C9389E011968C93119713
S113120012968C93129713968C93139781E01496ED
S11312108C937CC18EE38C9381E411968C9311970B
S113122089E412968C93129713968C9313978AE7FA
S113123014968C936BC19FE79C9388E011968C93D2
S1131240119712968C93129713968C931397149666
S11312509C935CC11C9281E411968C9311979FE737
S113126012969C93129713968C93139714961C9230
S11312704DC180E28C9380E411968C93119781E4A4
S113128012968C9312978FE313968C93139781E0A5
S113129014968C933BC18FE78C9388E011968C93C2
S11312A0119784E112968C93129782E213968C9391
S11312B0139781E414968C9329C18FE78C9380E46F
S11312C011968C93119712968C93129713968C9374
S11312D0139714968C931AC18FE78C9392E011960E
S11312E09C9311972CE012962C93129713969C932F
S11312F0139714968C930AC18FE78C9394E01196FC
S11313009C93119798E012969C93129790E11396F0
S11313109C93139714968C93F9C09EE39C9381E459
S113132011968C93119712968C93129713968C9313
S1131330139714969C93EAC08FE78C9389E01196D7
S11313408C93119712968C93129713968C931397F0
S113135086E014968C93DAC08EE38C9381E4119624
S11313608C93119781E512968C93129781E21396D0
S11313708C9313978EE514968C93C8C08FE78C9347
S113138089E011968C93119789E112968C931297A8
S113139089E213968C93139786E414968C93B6C0C3
S11313A086E48C9389E411968C93119712968C930E
S11313B0129713968C93139781E314968C93A6C07B
S11313C081E08C9311968C9311979FE712969C93CE
S11313D0129713968C93139714968C9397C09FE34C
S11313E09C9380E411968C93119712968C93129788
S11313F013968C93139714969C9388C08FE18C93C7
S113140090E211969C93119720E412962C931297D4
S113141013969C93139714968C9378C08FE78C93B0
S113142090E211969C93119728E112962C931297AF
S113143013969C93139714968C9368C083E68C93AD
S113144094E111969C93119728E012962C9312978D
S113145013969C93139714968C9358C087E08C939F
S113146098E011969C93119720E712962C9312976B
S113147013969C93139714968C9348C081E68C938F
S113148081E511968C93119789E412968C931297A7
S113149085E413968C93139783E414968C9336C047
S11314A01C9286E311968C93119712968C93129743
S11314B013961C92139714961C9228C088E08C9360
S11314C011968C93119712968C93129713968C9372
S11314D0139714968C931AC01C9280E611968C93E1
S11314E0119712968C93129713961C921397149635
S11314F01C920CC01C9211961C92119712961C926D
S1131500129713961C92139714961C92DF91CF9105
S11315100895CF93C82F88E70E94670180E00E9456
S113152087018C2F0E9487010E94AD01CF910895FD
S1131530CF93C82F88E70E94670180E40E94870147
S11315408C2F0E9487010E94AD01CF910895CF9303
S1131550962F990F690FC62FCC0F80550E94890AC8
S11315608C2F8E700E94890A8C2F82958F708061D7
S11315700E94890ACF9108951F93CF93DF9300D0DF
S113158000D01F92CDB7DEB7BE016F5F7F4F0E94C0
S1131590E80710E00AC0E1E0F0E0EC0FFD1FE10F06
S11315A0F11D80810E94980A1F5F1530A0F380E02E
S11315B00E94980A0F900F900F900F900F90DF9158
S11315C0CF911F910895CF93DF93EC0103C00E9444
S11315D0BC0A219688818111FACFDF91CF910895B9
S11315E0CF93DF93D0E013C080EB8D0F0E94890A64
S11315F080E00E94890A80E10E94890AC0E004C058
S113160080E00E94980ACF5FCC23D4F7DF5FD83004
S113161058F3DF91CF9108952FEF81EE94E021509C
S113162080409040E1F700C000008EEA0E94890AE1
S113163085ED0E94890A80E80E94890A88EA0E944E
S1131640890A8FE30E94890A83ED0E94890A80E057
S11316500E94890A80E40E94890A8DE80E94890A0E
S113166084E10E94890A80E20E94890A80E00E9443
S1131670890A81EA0E94890A88EC0E94890A8AED13
S11316800E94890A82E10E94890A81E80E94890AEB
S11316908FE70E94890A89ED0E94890A81EF0E94DE
S11316A0890A8BED0E94890A80E40E94890A84EAEF
S11316B00E94890A86EA0E94890A8FEA0E94890A9E
S11316C00E94F00A60E080E00E94A70A87E492E0AA
S11316D00E94E30A0895CF93C62F95B19B7F95B9D5
S11316E090E0880F991F8E770E94710D8C2F0E94B5
S11316F0710D85B1846085B9CF91089595B19B7FB3
S113170095B990E0880F991F8E7780680E94710DBB
S113171080E00E94710D95B1946095B9089584E1BB
S11317200E947E0B982F937029F4682F636084E1E4
S11317300E946B0B0895CF92DF92EF92FF920F936A
S11317401F93CF93DF936C01D62F8A01790160E058
S113175081E00E946B0B6FE784E00E946B0B60E8F2
S11317608AE00E946B0BC0E008C0F601EC0FF11D8B
S1131770608189E00E946B0BCF5FCD17B0F36CE002
S113178081E00E946B0B8DE00E947E0B682F6068E5
S11317908DE00E946B0BC0E00CC084E00E947E0BC5
S11317A0807349F489EF90E00197F1F700C00000DD
S11317B0CF5FC83290F38DE00E947E0B682F6F7765
S11317C08DE00E946B0BC832E1F086E00E947E0B34
S11317D0C82FCB71C1F48AE00E947E0BD82F8331CD
S11317E098F4F701808309C07801EC0EF11C89E0BC
S11317F00E947E0BF7018083CF5FCD17A8F3C1E071
S113180003C0C0E001C0C0E08C2FDF91CF911F91D5
S11318100F91FF90EF90DF90CF90089584B1846092
S113182084B985B1846085B98AB180688AB98BB17D
S113183080688BB983ED90E30197F1F700C0000055
S11318408BB18F778BB983EF91E00197F1F700C0EB
S113185000008BB180688BB983ED90E30197F1F7B9
S113186000C000000E94610D6FE081E00E946B0BDC
S113187083ED90E30197F1F700C0000060E485E197
S11318800E946B0B6DE381E10E946B0B0E948F0B36
S113189087E30E947E0B81508E3F10F080E0089514
S11318A081E00895CF93DF93CDB7DEB762970FB68B
S11318B0F894DEBF0FBECDBF86E2898367E08DE07A
S11318C00E946B0B9E012E5E3F4FAE014E5F5F4F39
S11318D061E0CE0101960E949B0B62960FB6F894CC
S11318E0DEBF0FBECDBFDF91CF9108950F931F933D
S11318F0CF93DF93CDB7DEB763970FB6F894DEBF0F
S11319000FBECDBF8C0183E9898380E28A8360E0C6
S11319108DE00E946B0B9E012D5E3F4FAE014D5F2B
S11319205F4F62E0CE0101960E949B0B8823C1F0B9
S11319308B898530A0F020E00EC0822F90E0F80162
S1131940E80FF91FA3E0B0E0AC0FBD1FA80FB91F4B
S11319508C9180832F5F243080F381E001C080E08C
S113196063960FB6F894DEBF0FBECDBFDF91CF9163
S11319701F910F91089560E081E00E946B0B089520
S1131980982F92959F70990F292F220F220F920F53
S11319908F70890F08959DEC899F912D1124969540
S11319A09695969520E1929FA0011124990F292FD5
S11319B0220F220F920F891B842B089580ED0E9421
S11319C0670180E00E94870180E00E9487010E94F5
S11319D0AD010895CF93DF93EC0180ED0E94670180
S11319E0882339F180E00E94870188810E94CB0C12
S11319F00E94870189810E94CB0C0E9487018A8101
S1131A000E94CB0C0E94870181E00E9487018B8198
S1131A100E94CB0C0E9487018C810E94CB0C0E94F7
S1131A2087018D810E94CB0C0E9487010E94AD0129
S1131A3081E0DF91CF910895CF93DF93EC0180EDA6
S1131A400E946701882359F180E00E94870181ED9B
S1131A500E946701882319F10E9499010E94C00C19
S1131A6088830E9499010E94C00C89830E94990175
S1131A700E94C00C8A830E9499010E9499010E94CD
S1131A80C00C8B830E9499010E94C00C8C830E941D
S1131A90A3010E94C00C8D830E94AD0181E0DF91FF
S1131AA0CF910895FC0182819AEF980F933028F02A
S1131AB08051833020F481E0089581E0089580E02E
S1131AC0089584B1846084B984B1886084B984B190
S1131AD0806284B984B18F7E84B980E58CBD1DBCDD
S1131AE008958EBD0DB407FEFDCF8EB50895A0E018
S1131AF0B0E0880F991FAA1FBB1F880F991FAA1F48
S1131B00BB1F9C01AD01220F331F441F551F220F21
S1131B10331F441F551F60E074E284EF90E00E947D
S1131B20C30D215031093093C5002093C400109295
S1131B30C00088E18093C10086E08093C2000895CC
S1131B409091C00095FFFCCF8093C60008958091CA
S1131B50C0008823E4F78091C6000895CF93DF93F3
S1131B60EC0103C00E94A00D219688818111FACF57
S1131B70DF91CF9108958091C000882314F481E00F
S1131B80089580E00895A1E21A2EAA1BBB1BFD0153
S1131B900DC0AA1FBB1FEE1FFF1FA217B307E40748
S1131BA0F50720F0A21BB30BE40BF50B661F771FA0
S1131BB0881F991F1A9469F7609570958095909580
S1131BC09B01AC01BD01CF010895EE0FFF1F0590ED
S1131BD0F491E02D0994A29FB001B39FC001A39F8B
S1131BE0700D811D1124911DB29F700D811D112452
S1131BF0911D0895FB01DC014150504030F08D915E
S1131C000190801919F40020B9F7881B990B0895E5
S1131C10AEE0B0E0EEE0FEE00C94FD130D891E8909
S1131C2086E08C831A8309838FEF9FE79E838D83DD
S1131C30AE01475E5F4F6F89788DCE0101960E9499
S1131C40430EEF81F885E00FF11F10822E96E4E039
S1131C500C941914AEE0B0E0E0E3FEE00C94FF1342
S1131C6085E08C838B899C899A838983AE01495E44
S1131C705F4F6D897E89CE0101960E94C0112E9618
S1131C80E2E00C941B14ABE0B0E0E9E4FEE00C9459
S1131C90EF136C017B018A01FC0117821682838198
S1131CA081FFCCC1CE0101963C01F6019381F7017D
S1131CB093FD859193FF81917F01882309F4BAC133
S1131CC0853239F493FD859193FF81917F018532AB
S1131CD029F4B60190E00E943913E7CF912C212C0E
S1131CE0312CFFE1F315D8F08B3279F038F48032DF
S1131CF079F08332A1F4232D20611DC08D3261F06F
S1131D00803369F4232D216016C0832D8260382E20
S1131D10E32DE4603E2E2AC0F32DF8601DC037FC8D
S1131D202DC020ED280F2A3040F08E32B9F436FC55
S1131D3081C1232D2064322E19C036FE06C08AE0EC
S1131D40989E200D1124922E11C0EAE02E9E200DA3
S1131D501124222EF32DF0623F2E08C08C3621F47C
S1131D60832D8068382E02C0883641F4F70193FD34
S1131D70859193FF81917F018111B3CF982F9F7D2E
S1131D809554933028F40C5F1F4F9FE399830DC043
S1131D90833631F0833771F0833509F059C021C09F
S1131DA0F801808189830E5F1F4F88248394912CCE
S1131DB0530113C02801F2E04F0E511CF801A0801A
S1131DC0B18036FE03C0692D70E002C06FEF7FEF73
S1131DD0C5010E94F0124C018201F32DFF773F2EC2
S1131DE016C0280122E0420E511CF801A080B180E7
S1131DF036FE03C0692D70E002C06FEF7FEFC501AE
S1131E000E94E5124C01F32DF0683F2E820133FC51
S1131E101BC0822D90E088169906B0F4B60180E2CA
S1131E2090E00E9439132A94F4CFF50137FC859190
S1131E3037FE81915F01B60190E00E9439132110B1
S1131E402A9421E0821A91088114910471F7E8C060
S1131E50843611F0893641F5F80137FE07C06081F8
S1131E607181828193810C5F1F4F08C060817181F1
S1131E70072E000C880B990B0E5F1F4FF32DFF7676
S1131E803F2E97FF09C090958095709561957F4F7F
S1131E908F4F9F4FF0683F2E2AE030E0A3010E944D
S1131EA08E13882E861845C0853731F4232D2F7E56
S1131EB0B22E2AE030E025C0932D997FB92E8F36BB
S1131EC0C1F018F4883579F0B5C0803719F0883737
S1131ED021F0B0C0E92FE061BE2EB4FE0DC0FB2D91
S1131EE0F460BF2E09C034FE0AC0292F2660B22E2A
S1131EF006C028E030E005C020E130E002C020E167
S1131F0032E0F801B7FE07C060817181828193815C
S1131F100C5F1F4F06C06081718180E090E00E5F0E
S1131F201F4FA3010E948E13882E8618FB2DFF7766
S1131F303F2E36FE0DC0232D2E7FA22E891458F479
S1131F4034FE0BC032FC09C0832D8E7EA82E05C042
S1131F50B82CA32C03C0B82C01C0B92CA4FE0FC00C
S1131F60FE01E80DF11D8081803321F49A2D997EC4
S1131F70A92E09C0A2FE06C0B394B39404C08A2D4E
S1131F80867809F0B394A3FC11C0A0FE06C0B21475
S1131F9088F4280C922C9B180EC0B21460F4B6017D
S1131FA080E290E00E943913B394F7CFB21418F48E
S1131FB02B1802C0982C212CA4FE10C0B60180E37B
S1131FC090E00E943913A2FE17C0A1FC03C088E769
S1131FD090E002C088E590E0B6010CC08A2D8678B6
S1131FE059F0A1FE02C08BE201C080E2A7FC8DE2A1
S1131FF0B60190E00E943913891438F4B60180E3E5
S113200090E00E9439139A94F7CF8A94F301E80D73
S1132010F11D8081B60190E00E9439138110F5CF43
S1132020222009F442CEB60180E290E00E943913E6
S11320302A94F6CFF6018681978102C08FEF9FEF35
S11320402B96E2E10C940B1420FD09C0FC0123FD46
S113205005C022FF02C073836283518340830895C5
S113206044FD17C046FD17C0AB01BC01DA01FB01FA
S1132070AA0FBB1FEE1FFF1F1094D1F74A0F5B1F5F
S11320806E1F7F1FCB01BA01660F771F881F991F30
S113209009C033E001C034E0660F771F881F991F21
S11320A03150D1F7620F711D811D911D08950F9359
S11320B01F93CF93DF938C01C8010E94FB12EC01A4
S11320C097FD08C00E94D112892BB1F7B801CE0147
S11320D00E947513CE01DF91CF911F910F91089546
S11320E08F929F92AF92BF92EF92FF920F931F93A2
S11320F0CF93DF938C01D62F7A01B22E0E94FB126C
S11321009C0133272B32310531F02D32310561F436
S11321108B2D8068B82ED15011F480E068C0C801BE
S11321200E94FB1297FDF9CFCB2DCD7F2B2D207371
S113213009F58033F9F4AA24AA94AD0E09F443C036
S1132140C8010E94FB1297FD3EC09C012F7D3327DE
S11321502835310549F4C264D250A9F1C8010E945E
S1132160FB1297FF07C02FC0B6FE02C0C26001C0B9
S1132170C261DA2D812C912C540120ED280F2830D6
S113218080F0C4FF04C0B8010E94751319C02A303E
S113219040F0C6FFF8CF2F7D3FEE320F363098F770
S11321A027504C2FC501B4010E9430104B015C0133
S11321B0C260D15059F0C8010E94FB1297FFDDCFD5
S11321C0C1FD04C0AACF812C912C5401C7FF08C0C3
S11321D0B094A09490948094811C911CA11CB11C77
S11321E02C2FB501A401C7010E94241081E0DF91C6
S11321F0CF911F910F91FF90EF90BF90AF909F9060
S11322008F900895A0E2B0E0E8E0F1E10C94F213BD
S11322105C01962E7A01F9018E010F5F1F4F680150
S113222080E2D8011D928A95E9F7D50113968C9026
S113223080E090E0612C712C30E061E070E083FC80
S1132240259183FE21918F01522E211103C080E03C
S113225090E092C02E3511F4009751F1432F50E0D5
S1132260481759073CF42D3559F12D3219F47720CC
S113227009F103C0772009F46AC0452D46954695B7
S11322804695D601A40FB11D452D47708B0102C0A0
S1132290000F111F4A95E2F7A8015C91452B4C935E
S11322A0651459F0561410F45394E7CF5A94E5CFBB
S11322B031E004C07724739401C0712C0196BFCF20
S11322C0772019F08E8180628E83311103C08824B7
S11322D0839417C0F6019E012F5D3F4F8081809546
S11322E081932E173F07D1F7F2CFE114F10429F0BF
S11322F0D7018C93F70131967F019A94812C992010
S1132300F9F0C5010E94FB1297FD18C0FC01FF27DC
S113231023E0F595E7952A95E1F7EC0DFD1D208165
S113232030E0AC014770552702C0359527954A9592
S1132330E2F720FDDACFB5010E947513811087CF33
S1132340E114F10411F0D7011C92C80115C0422F09
S1132350469546954695D601A40FB11D422F477068
S11323608B0102C0000F111F4A95E2F7A8015C918E
S1132370452B4C93622EA2CFA096EFE00C940E1442
S1132380A0E0B0E0E6ECF1E10C94F2136C01EB0197
S11323905A01FC0117821682512CF601E380FE01DA
S11323A0E3FC8591E3FE8191182FEF01882309F462
S11323B0EEC090E00E94D112892B21F0C6010E9448
S11323C05710EBCF153241F4FE01E3FC1591E3FE07
S11323D01191EF01153281F4C6010E94FB1297FDA1
S11323E0D4C0412F50E09C01332724173507A9F2AC
S11323F0B6010E947513CBC01A3239F4E3FC15916F
S1132400E3FE1191EF0101E001C000E0F12C20EDA9
S1132410210F2A3080F402606F2D70E080E090E09C
S113242040E20E943010F62EFE01E3FC1591E3FE1B
S11324301191EF01ECCF01FF03C0F11003C0A7C05D
S1132440FF24FA94183619F01C3651F010C0FE011E
S1132450E3FC1591E3FE1191EF01183641F4086095
S11324600460FE01E3FC1591E3FE1191EF011123D9
S113247009F48DC0612F70E084EC90E00E94DA12C0
S1132480892B09F484C000FD07C0F5018080918088
S1132490C50102965C0102C0812C912C1E3651F4B8
S11324A0F6014681578160E070E0202FC4010E944C
S11324B0241073CF1336A9F401FD02C0FF24F39452
S11324C0C6010E94FB1297FD60C08114910429F09B
S11324D0F4018083C40101964C01FA94F110F0CF09
S11324E050C01B3559F49E01A4016F2DC6010E94F2
S11324F00211EC01892B09F044C03EC0C6010E94C0
S1132500571097FD42C01F3661F128F4143639F193
S1132510193651F128C0133771F0153701F123C072
S11325208114910429F0F4016082C40101964C01E4
S1132530FA94FF2071F0C6010E94FB123C0197FD42
S113254008C00E94D112892B59F3B601C3010E941D
S1132550751381149104A9F0F401108212C0006271
S113256003C0006101C00064202FA4016F2DC601C7
S11325700E947010811105C0F6018381807329F4D3
S113258006C000FD0ACF539408CF552019F0852DBD
S113259090E002C08FEF9FEFCDB7DEB7EFE00C9471
S11325A00E1491110C94EC13803219F0895085505B
S11325B0C8F70895FC010590061621F00020D9F70C
S11325C0C00108953197CF010895FC010590615031
S11325D070400110D8F7809590958E0F9F1F089535
S11325E0FC016150704001900110D8F780959095DE
S11325F08E0F9F1F0895CF93DF93EC012B8120FF53
S113260033C026FF0AC02F7B2B838E819F810196C6
S11326109F838E838A8190E029C022FF0FC0E881C6
S1132620F9818081082E000C990B009719F420621F
S11326302B831AC03196F983E8830EC0EA85FB85A3
S1132640099597FF09C02B81019611F080E201C022
S113265080E1822B8B8308C02E813F812F5F3F4F07
S11326603F832E83992702C08FEF9FEFDF91CF9195
S113267008950F931F93CF93DF93FB01238121FDD3
S113268003C08FEF9FEF2CC022FF16C046815781F5
S1132690248135814217530744F4A081B1819D01FF
S11326A02F5F3F4F318320838C93268137812F5FA7
S11326B03F4F3783268314C08B01EC01FB01008458
S11326C0F185E02D0995892BE1F6D80116968D91B7
S11326D09C911797019617969C938E931697CE010B
S11326E0DF91CF911F910F910895FB01238120FF6A
S11326F012C026FD10C08F3F3FEF930761F0828325
S11327002F7D20642383268137812150310937832B
S11327102683992708958FEF9FEF0895FA01AA273A
S1132720283051F1203181F1E8946F936E7F6E5F10
S11327307F4F8F4F9F4FAF4FB1E03ED0B4E03CD0BE
S1132740670F781F891F9A1FA11D680F791F8A1FA1
S1132750911DA11D6A0F711D811D911DA11D20D008
S113276009F468943F912AE0269F11243019305DC2
S11327703193DEF6CF010895462F4770405D4193B3
S1132780B3E00FD0C9F7F6CF462F4F70405D4A3300
S113279018F0495D31FD4052419302D0A9F7EACFC8
S11327A0B4E0A6959795879577956795BA95C9F7F7
S11327B000976105710508959B01AC010A2E0694EA
S11327C05795479537952795BA95C9F7620F731FA3
S11327D0841F951FA01D08959927882708952F9277
S11327E03F924F925F926F927F928F929F92AF929D
S11327F0BF92CF92DF92EF92FF920F931F93CF93EA
S1132800DF93CDB7DEB7CA1BDB0B0FB6F894DEBF80
S11328100FBECDBF09942A88398848885F846E84A6
S11328207D848C849B84AA84B984C884DF80EE80F0
S1132830FD800C811B81AA81B981CE0FD11D0FB6F9
S1132840F894DEBF0FBECDBFED010895F894FFCF1D
S113285025303258253032582530325825303258F8
S113286000253032753A253032753A2530327500FC
S1132870244556542C25732C25732C25732C257331
S11328802A0042616C616E63653A20004C6F7720C8
S113289062616C616E6365002532580045525220B6
S11328A04E4F54464F554E440D0A0042414C414E42
S11328B04345200025752C25752C25752C25303293
S11328C0753A253032750D0A0025752D2568687511
S11328D02D2568687554256868753A256868753AC1
S11328E025686875004F4B0D0A004552520D0A00C9
S11328F04552522046554C4C0D0A00455252204D2B
S113290041580D0A00454550524F4D004552524F13
S1132910520025732C257500544F50555000544FC8
S113292050555020002531317320257500484953F6
S1132930544F5259200053455454494D45200045A5
S1132940525220434D440D0A00507265706169640F
S1132950204B696F736B004657312E3000424F4F46
S1132960540025732C25752C2575005041590025DC
S1132970732C4C4F575F42414C414E4345005245E6
S1132980465553454400496E7375666669636965C7
S11329906E74005254430050524550414944204BF8
S10929A0494F534B0000F7
S9030000FC
