S0110000554152545F415050322E7372656365
S11300000C9434000C9449000C9449000C9449005D
S11300100C9449000C9449000C9449000C94490038
S11300200C9449000C9449000C9449000C94490028
S11300300C9449000C9449000C9449000C94490018
S11300400C9449000C9449000C9449000C94490008
S11300500C9449000C9449000C9449000C944900F8
S11300600C9449000C94490011241FBECFEFD8E032
S1130070DEBFCDBF11E0A0E0B1E0E6E0F3E002C0F6
S113008005900D92A630B107D9F70E94E1000C94B7
S113009081010C94000085B1826085B985B18D7FA2
S11300A085B9089580FF04C095B1946095B903C0E3
S11300B095B19B7F95B981FF04C095B1986095B9BE
S11300C003C095B1977F95B982FF04C095B1906143
S11300D095B903C095B19F7E95B983FF04C085B1DE
S11300E0806285B903C085B18F7D85B90E944B00BC
S11300F00895CF93C82F85B18E7F85B98C2F8295B3
S11301008F700E9452008C2F8F700E945200CF91EA
S1130110089584B1816084B984B1826084B984B162
S1130120846084B984B1886084B984B1806184B9FD
S113013084B1806284B985B18E7F85B983E00E94E1
S1130140520083E00E94520083E00E94520082E049
S11301500E94520088E20E9479008CE00E9479009B
S113016081E00E94790086E00E9479000895CF938F
S1130170C82F85B1816085B98C2F82958F700E94BC
S113018052008C2F8F700E945200CF9108950E94CC
S1130190B7000895CF93DF93EC0103C00E94B7002A
S11301A0219688818111FACFDF91CF910895811131
S11301B003C080E8860F02C080EC860F0E9479009D
S11301C008958AB188608AB980E895E20E940601A0
S11301D00E9489000E945801C82F863041F48BB1D7
S11301E088608BB980E091E00E94CA00F3CF81E07F
S11301F00E94510180E091E00E94CA0060E081E029
S11302000E94D7008C2F0E94C700E4CF9C018AB1C2
S11302108E7F8AB98AB182608AB9C901A0E0B0E050
S1130220880F991FAA1FBB1F880F991FAA1FBB1FE6
S11302309C01AD01220F331F441F551F220F331F92
S1130240441F551F60E074E284EF90E00E945F0158
S113025021503109E2ECF0E080818F7B8083808142
S11302608F77808380818F7E808380818F7D808360
S11302708081877F808380818260808380818460A5
S11302808083E1ECF0E080818B7F80833093C50034
S11302902093C40080818061808380818860808312
S11302A008959091C00095FFFCCF8093C6000895F7
S11302B08091C0008823E4F78091C6000895A1E2EC
S11302C01A2EAA1BBB1BFD010DC0AA1FBB1FEE1FCC
S11302D0FF1FA217B307E407F50720F0A21BB30B17
S11302E0E40BF50B661F771F881F991F1A9469F793
S11302F060957095809590959B01AC01BD01CF01EF
S10903000895F894FFCFFC
S109030653616D6100006B
S9030000FC
