S0110000554152545F415050322E7372656365
S11300000C9434000C943E000C943E000C943E007E
S11300100C943E000C943E000C943E000C943E0064
S11300200C943E000C943E000C943E000C943E0054
S11300300C943E000C943E000C943E000C943E0044
S11300400C943E000C943E000C943E000C943E0034
S11300500C943E000C943E000C943E000C943E0024
S11300600C943E000C943E0011241FBECFEFD8E048
S1130070DEBFCDBF0E9440000C94CE000C94000063
S11300808AB188608AB980E895E20E9453000E9490
S1130090A500863021F48BB188608BB9F8CF81E05C
S11300A00E949E00F4CF9C018AB18E7F8AB98AB1E6
S11300B082608AB9C901A0E0B0E0880F991FAA1F25
S11300C0BB1F880F991FAA1FBB1F9C01AD01220FE4
S11300D0331F441F551F220F331F441F551F60E059
S11300E074E284EF90E00E94AC0021503109E2EC0C
S11300F0F0E080818F7B808380818F778083808113
S11301008F7E808380818F7D80838081877F8083C1
S1130110808182608083808184608083E1ECF0E070
S113012080818B7F80833093C5002093C4008081BD
S11301308061808380818860808308959091C0006D
S113014095FFFCCF8093C60008958091C00088235A
S1130150E4F78091C6000895A1E21A2EAA1BBB1BE6
S1130160FD010DC0AA1FBB1FEE1FFF1FA217B3077F
S1130170E407F50720F0A21BB30BE40BF50B661F95
S1130180771F881F991F1A9469F760957095809559
S113019090959B01AC01BD01CF010895F894FFCF68
S9030000FC
