:100000000C9434000C943E000C943E000C943E0082
:100010000C943E000C943E000C943E000C943E0068
:100020000C943E000C943E000C943E000C943E0058
:100030000C943E000C943E000C943E000C943E0048
:100040000C943E000C943E000C943E000C943E0038
:100050000C943E000C943E000C943E000C943E0028
:100060000C943E000C943E0011241FBECFEFD8E04C
:10007000DEBFCDBF0E9482000C94BC000C94000037
:100080001092B9008CE08093B80084E08093BC00AB
:10009000089584EA8093BC008091BC008823E4F733
:1000A0008091B900887F883011F481E0089580E064
:1000B0000895880F8093BB0084E88093BC008091F2
:1000C000BC008823E4F78091B900887F883111F45F
:1000D00081E0089580E008958093BB0084E88093D8
:1000E000BC008091BC008823E4F78091B900887F30
:1000F000883211F481E0089580E0089584E98093C6
:10010000BC0008950E9440000E94490083E20E94C2
:10011000590082E40E946C002FEF83ED90E32150A0
:1001200080409040E1F700C000008FE40E946C0026
:100130002FEF83ED90E3215080409040E1F700C025
:10014000000082E40E946C002FEF83ED90E32150C9
:1001500080409040E1F700C000008FE40E946C00F6
:100160002FEF83ED90E3215080409040E1F700C0F5
:0C01700000000E947E00C8CFF894FFCF72
:00000001FF
